{
    "contractName": "CampaginFactory",
    "abi": [
        {
            "inputs": [],
            "stateMutability": "nonpayable",
            "type": "constructor"
        },
        {
            "anonymous": false,
            "inputs": [
                {
                    "indexed": true,
                    "internalType": "address",
                    "name": "Owner",
                    "type": "address"
                },
                {
                    "indexed": true,
                    "internalType": "address",
                    "name": "campaign",
                    "type": "address"
                }
            ],
            "name": "CampaignCreated",
            "type": "event"
        },
        {
            "inputs": [],
            "name": "admin",
            "outputs": [
                {
                    "internalType": "address",
                    "name": "",
                    "type": "address"
                }
            ],
            "stateMutability": "view",
            "type": "function"
        },
        {
            "inputs": [
                {
                    "internalType": "address",
                    "name": "_campaignAddress",
                    "type": "address"
                }
            ],
            "name": "contribute",
            "outputs": [],
            "stateMutability": "payable",
            "type": "function"
        },
        {
            "inputs": [
                {
                    "internalType": "uint256",
                    "name": "minimumContribution",
                    "type": "uint256"
                },
                {
                    "internalType": "uint256",
                    "name": "durationInDays",
                    "type": "uint256"
                },
                {
                    "internalType": "uint256",
                    "name": "Goal",
                    "type": "uint256"
                },
                {
                    "internalType": "enum CampaginFactory.CampaignType",
                    "name": "campType",
                    "type": "uint8"
                },
                {
                    "internalType": "bool",
                    "name": "verfied",
                    "type": "bool"
                }
            ],
            "name": "createProject",
            "outputs": [],
            "stateMutability": "nonpayable",
            "type": "function"
        },
        {
            "inputs": [
                {
                    "internalType": "uint256",
                    "name": "",
                    "type": "uint256"
                }
            ],
            "name": "deployedProjects",
            "outputs": [
                {
                    "internalType": "contract BaseCampaign",
                    "name": "",
                    "type": "address"
                }
            ],
            "stateMutability": "view",
            "type": "function"
        },
        {
            "inputs": [],
            "name": "getDeployedProjects",
            "outputs": [
                {
                    "internalType": "contract BaseCampaign[]",
                    "name": "",
                    "type": "address[]"
                }
            ],
            "stateMutability": "view",
            "type": "function"
        },
        {
            "inputs": [
                {
                    "internalType": "address",
                    "name": "user",
                    "type": "address"
                }
            ],
            "name": "getDeployedProjectsByUser",
            "outputs": [
                {
                    "internalType": "contract BaseCampaign[]",
                    "name": "",
                    "type": "address[]"
                }
            ],
            "stateMutability": "view",
            "type": "function"
        },
        {
            "inputs": [
                {
                    "internalType": "address",
                    "name": "",
                    "type": "address"
                },
                {
                    "internalType": "uint256",
                    "name": "",
                    "type": "uint256"
                }
            ],
            "name": "userCampagins",
            "outputs": [
                {
                    "internalType": "contract BaseCampaign",
                    "name": "",
                    "type": "address"
                }
            ],
            "stateMutability": "view",
            "type": "function"
        }
    ],
    "bytecode": "60a060405234801561000f575f80fd5b50336080526080516130416100415f395f8181610156015281816103120152818161045401526104c701526130415ff3fe60806040526004361061006e575f3560e01c80639ec6deaf1161004c5780639ec6deaf146100d0578063d66e9af914610107578063dd9c2ad914610126578063f851a44014610145575f80fd5b806373e888fd146100725780637ac3886e14610087578063890990a8146100b1575b5f80fd5b6100856100803660046106a4565b610178565b005b348015610092575f80fd5b5061009b6101d0565b6040516100a891906106c4565b60405180910390f35b3480156100bc575f80fd5b5061009b6100cb3660046106a4565b61022f565b3480156100db575f80fd5b506100ef6100ea366004610710565b6102a2565b6040516001600160a01b0390911681526020016100a8565b348015610112575f80fd5b50610085610121366004610727565b6102c9565b348015610131575f80fd5b506100ef610140366004610780565b6105c2565b348015610150575f80fd5b506100ef7f000000000000000000000000000000000000000000000000000000000000000081565b5f819050806001600160a01b031663d7bb99ba346040518263ffffffff1660e01b81526004015f604051808303818588803b1580156101b5575f80fd5b505af11580156101c7573d5f803e3d5ffd5b50505050505050565b60605f80548060200260200160405190810160405280929190818152602001828054801561022557602002820191905f5260205f20905b81546001600160a01b03168152600190910190602001808311610207575b5050505050905090565b6001600160a01b0381165f9081526001602090815260409182902080548351818402810184019094528084526060939283018282801561029657602002820191905f5260205f20905b81546001600160a01b03168152600190910190602001808311610278575b50505050509050919050565b5f81815481106102b0575f80fd5b5f918252602090912001546001600160a01b0316905081565b5f8260028111156102dc576102dc6107a8565b0361040a5761030b6040518060400160405280600981526020016802932bbb0b9321018960bd1b8152506105f6565b5f338686867f00000000000000000000000000000000000000000000000000000000000000008660405161033e9061065f565b61034d969594939291906107bc565b604051809103905ff080158015610366573d5f803e3d5ffd5b505f8054600181810183557f290decd9548b62a8d60345a988386fc84ba6bc95484008f6362f93160ef3e56390910180546001600160a01b0385166001600160a01b0319918216811790925533808552602084815260408087208054968701815587529086209094018054909216831790915591519394509290917f6056366dba45431fd6a8854ad9f2594942b02c4f2c3f6fbc329b3079b027b8b491a3506105bb565b600182600281111561041e5761041e6107a8565b036104805761044d6040518060400160405280600981526020016802932bbb0b9321019160bd1b8152506105f6565b5f338686867f00000000000000000000000000000000000000000000000000000000000000008660405161033e9061066d565b6002826002811115610494576104946107a8565b036105bb576104c06040518060400160405280600681526020016514995dd85c9960d21b8152506105f6565b5f338686867f0000000000000000000000000000000000000000000000000000000000000000866040516104f39061067b565b610502969594939291906107bc565b604051809103905ff08015801561051b573d5f803e3d5ffd5b505f8054600181810183557f290decd9548b62a8d60345a988386fc84ba6bc95484008f6362f93160ef3e56390910180546001600160a01b0385166001600160a01b0319918216811790925533808552602084815260408087208054968701815587529086209094018054909216831790915591519394509290917f6056366dba45431fd6a8854ad9f2594942b02c4f2c3f6fbc329b3079b027b8b491a3505b5050505050565b6001602052815f5260405f2081815481106105db575f80fd5b5f918252602090912001546001600160a01b03169150829050565b6106398160405160240161060a91906107f7565b60408051601f198184030181529190526020810180516001600160e01b031663104c13eb60e21b17905261063c565b50565b610639815f6a636f6e736f6c652e6c6f6790505f80835160208501845afa505050565b610cc8806200084483390190565b610d7a806200150c83390190565b610d86806200228683390190565b80356001600160a01b038116811461069f575f80fd5b919050565b5f602082840312156106b4575f80fd5b6106bd82610689565b9392505050565b602080825282518282018190525f9190848201906040850190845b818110156107045783516001600160a01b0316835292840192918401916001016106df565b50909695505050505050565b5f60208284031215610720575f80fd5b5035919050565b5f805f805f60a0868803121561073b575f80fd5b85359450602086013593506040860135925060608601356003811061075e575f80fd5b915060808601358015158114610772575f80fd5b809150509295509295909350565b5f8060408385031215610791575f80fd5b61079a83610689565b946020939093013593505050565b634e487b7160e01b5f52602160045260245ffd5b6001600160a01b039687168152602081019590955260408501939093526060840191909152909216608082015290151560a082015260c00190565b5f602080835283518060208501525f5b8181101561082357858101830151858201604001528201610807565b505f604082860101526040601f19601f830116850101925050509291505056fe60c060405234801562000010575f80fd5b5060405162000cc838038062000cc8833981016040819052620000339162000174565b5f80546001600160a01b0319166001600160a01b0388161790556003859055858585858585620000678462015180620001f8565b62000073904262000218565b60a0528062000088576007805461ff00191690555b6007805461ff0019166102001790556080839052620000a730620000d9565b50600180546001600160a01b0319166001600160a01b0392909216919091179055506200022e98505050505050505050565b6040516001600160a01b0382166024820152620001279060440160408051601f198184030181529190526020810180516001600160e01b0390811663161765e160e11b179091526200012a16565b50565b62000127816200014060201b620008921760201c565b5f6a636f6e736f6c652e6c6f6790505f80835160208501845afa505050565b6001600160a01b038116811462000127575f80fd5b5f805f805f8060c087890312156200018a575f80fd5b865162000197816200015f565b809650506020870151945060408701519350606087015192506080870151620001c0816200015f565b60a08801519092508015158114620001d6575f80fd5b809150509295509295509295565b634e487b7160e01b5f52601160045260245ffd5b8082028115828204841417620002125762000212620001e4565b92915050565b80820180821115620002125762000212620001e4565b60805160a051610a6a6200025e5f395f81816101350152818161050401526106fc01525f6101b60152610a6a5ff3fe6080604052600436106100e4575f3560e01c806371aac7f911610087578063d7bb99ba11610057578063d7bb99ba14610268578063f387bcac14610270578063f3a4721a14610294578063ff762044146102bf575f80fd5b806371aac7f9146102025780638a35b88b14610216578063a8622ffe14610235578063b4a99a4e1461024a575f80fd5b806337c08923116100c257806337c089231461019057806340193883146101a557806356c7f461146101d85780636eb51205146101ee575f80fd5b80630b9f2c4a146100e857806312498a70146101245780631f6d494214610165575b5f80fd5b3480156100f3575f80fd5b506101076101023660046108e6565b6102d4565b6040516001600160a01b0390911681526020015b60405180910390f35b34801561012f575f80fd5b506101577f000000000000000000000000000000000000000000000000000000000000000081565b60405190815260200161011b565b348015610170575f80fd5b5061015761017f3660046108fd565b60046020525f908152604090205481565b34801561019b575f80fd5b5061015760065481565b3480156101b0575f80fd5b506101577f000000000000000000000000000000000000000000000000000000000000000081565b3480156101e3575f80fd5b506101ec6102fc565b005b3480156101f9575f80fd5b506101ec6104a2565b34801561020d575f80fd5b506101ec6104d9565b348015610221575f80fd5b506101ec61023036600461092a565b61061c565b348015610240575f80fd5b5061015760035481565b348015610255575f80fd5b505f54610107906001600160a01b031681565b6101ec610645565b34801561027b575f80fd5b50610284610864565b604051901515815260200161011b565b34801561029f575f80fd5b506007546102b290610100900460ff1681565b60405161011b919061095c565b3480156102ca575f80fd5b5061015760025481565b600581815481106102e3575f80fd5b5f918252602090912001546001600160a01b0316905081565b60055f5b60055481101561049e575f805b6005838154811061032057610320610982565b5f918252602082200154600580546001600160a01b03909216926108fc92600492908890811061035257610352610982565b5f9182526020808320909101546001600160a01b03168352820192909252604090810182205490518115909302929091818181858888f193505050509050818061039b906109aa565b925050801580156103ab57508382105b61030d57806104595760405162461bcd60e51b815260206004820152606360248201527f4661696c656420746f2073656e642074686520636f6e747269627574696f6e2060448201527f746f2074686520636f6e7472696275746f72206166746572206d756c7469706c60648201527f6520617474656d7074732e20506c656173652074727920616761696e206c617460848201526232b91760e91b60a482015260c4015b60405180910390fd5b5f60045f6005868154811061047057610470610982565b5f9182526020808320909101546001600160a01b031683528201929092526040019020555050600101610300565b5050565b6001546001600160a01b031633146104cc5760405162461bcd60e51b8152600401610450906109c2565b6007805461ff0019169055565b5f546001600160a01b031633146105025760405162461bcd60e51b8152600401610450906109c2565b7f00000000000000000000000000000000000000000000000000000000000000004210156105725760405162461bcd60e51b815260206004820152601a60248201527f43616d706169676e20686173206e6f7420656e646564207965740000000000006044820152606401610450565b5f47116105c15760405162461bcd60e51b815260206004820152601960248201527f436f6e74726163742062616c616e636520697320656d707479000000000000006044820152606401610450565b5f6105ca6108b1565b9050806106195760405162461bcd60e51b815260206004820152601960248201527f4661696c656420746f2073656e642062616c616e636520746f000000000000006044820152606401610450565b50565b6007805482919061ff00191661010083600481111561063d5761063d610948565b021790555050565b5f600754610100900460ff16600481111561066257610662610948565b146106a85760405162461bcd60e51b815260206004820152601660248201527543616d706169676e206973206e6f742061637469766560501b6044820152606401610450565b6003543410156106fa5760405162461bcd60e51b815260206004820152601b60248201527f436f6e747269627574696f6e20616d6f756e7420746f6f206c6f7700000000006044820152606401610450565b7f0000000000000000000000000000000000000000000000000000000000000000421061075e5760405162461bcd60e51b815260206004820152601260248201527110d85b5c185a59db881a185cc8195b99195960721b6044820152606401610450565b6003543410156107b05760405162461bcd60e51b815260206004820152601b60248201527f436f6e747269627574696f6e20616d6f756e7420746f6f206c6f7700000000006044820152606401610450565b335f90815260046020526040812080543492906107ce908490610a07565b925050819055503460065f8282546107e69190610a07565b9091555050600580546001810182555f919091527f036b6384b5eca791c62761152d0c79bb0604c104a5fb6f4eb0703f3154bb3db00180546001600160a01b031916339081179091556040513481527f1bb460ccaaf70fbacfec17a376f8acbd278c1405590ffcc8ebe4b88daf4f64ad9060200160405180910390a2565b5f80600754610100900460ff16600481111561088257610882610948565b0361088d5750600190565b505f90565b5f6a636f6e736f6c652e6c6f6790505f80835160208501845afa505050565b5f80546040516001600160a01b03909116904780156108fc029184818181858888f195945050505050565b6108e4610a20565b565b5f602082840312156108f6575f80fd5b5035919050565b5f6020828403121561090d575f80fd5b81356001600160a01b0381168114610923575f80fd5b9392505050565b5f6020828403121561093a575f80fd5b813560058110610923575f80fd5b634e487b7160e01b5f52602160045260245ffd5b602081016005831061097c57634e487b7160e01b5f52602160045260245ffd5b91905290565b634e487b7160e01b5f52603260045260245ffd5b634e487b7160e01b5f52601160045260245ffd5b5f600182016109bb576109bb610996565b5060010190565b60208082526025908201527f4f6e6c7920746865204f776e65722063616e2063616c6c20746869732066756e60408201526431ba34b7b760d91b606082015260800190565b80820180821115610a1a57610a1a610996565b92915050565b634e487b7160e01b5f52605160045260245ffdfea26469706673582212203a65968602d7cde2b9e1863dbdd5e33c91a9a7d298701863bddf5e7169ac6b8c64736f6c6343000818003360c06040525f60085534801562000014575f80fd5b5060405162000d7a38038062000d7a833981016040819052620000379162000178565b5f80546001600160a01b0319166001600160a01b03881617905560038590558585858585856200006b8462015180620001fc565b6200007790426200021c565b60a052806200008c576007805461ff00191690555b6007805461ff0019166102001790556080839052620000ab30620000dd565b50600180546001600160a01b0319166001600160a01b0392909216919091179055506200023298505050505050505050565b6040516001600160a01b03821660248201526200012b9060440160408051601f198184030181529190526020810180516001600160e01b0390811663161765e160e11b179091526200012e16565b50565b6200012b816200014460201b6200092d1760201c565b5f6a636f6e736f6c652e6c6f6790505f80835160208501845afa505050565b6001600160a01b03811681146200012b575f80fd5b5f805f805f8060c087890312156200018e575f80fd5b86516200019b8162000163565b809650506020870151945060408701519350606087015192506080870151620001c48162000163565b60a08801519092508015158114620001da575f80fd5b809150509295509295509295565b634e487b7160e01b5f52601160045260245ffd5b8082028115828204841417620002165762000216620001e8565b92915050565b80820180821115620002165762000216620001e8565b60805160a051610b03620002775f395f81816101350152818161050401526106f901525f81816101b6015281816105c30152818161060601526108120152610b035ff3fe6080604052600436106100e4575f3560e01c806371aac7f911610087578063d7bb99ba11610057578063d7bb99ba14610268578063f387bcac14610270578063f3a4721a14610294578063ff762044146102bf575f80fd5b806371aac7f9146102025780638a35b88b14610216578063a8622ffe14610235578063b4a99a4e1461024a575f80fd5b806337c08923116100c257806337c089231461019057806340193883146101a557806356c7f461146101d85780636eb51205146101ee575f80fd5b80630b9f2c4a146100e857806312498a70146101245780631f6d494214610165575b5f80fd5b3480156100f3575f80fd5b5061010761010236600461097f565b6102d4565b6040516001600160a01b0390911681526020015b60405180910390f35b34801561012f575f80fd5b506101577f000000000000000000000000000000000000000000000000000000000000000081565b60405190815260200161011b565b348015610170575f80fd5b5061015761017f366004610996565b60046020525f908152604090205481565b34801561019b575f80fd5b5061015760065481565b3480156101b0575f80fd5b506101577f000000000000000000000000000000000000000000000000000000000000000081565b3480156101e3575f80fd5b506101ec6102fc565b005b3480156101f9575f80fd5b506101ec6104a2565b34801561020d575f80fd5b506101ec6104d9565b348015610221575f80fd5b506101ec6102303660046109c3565b6106ce565b348015610240575f80fd5b5061015760035481565b348015610255575f80fd5b505f54610107906001600160a01b031681565b6101ec6106f7565b34801561027b575f80fd5b506102846108ff565b604051901515815260200161011b565b34801561029f575f80fd5b506007546102b290610100900460ff1681565b60405161011b91906109f5565b3480156102ca575f80fd5b5061015760025481565b600581815481106102e3575f80fd5b5f918252602090912001546001600160a01b0316905081565b60055f5b60055481101561049e575f805b6005838154811061032057610320610a1b565b5f918252602082200154600580546001600160a01b03909216926108fc92600492908890811061035257610352610a1b565b5f9182526020808320909101546001600160a01b03168352820192909252604090810182205490518115909302929091818181858888f193505050509050818061039b90610a43565b925050801580156103ab57508382105b61030d57806104595760405162461bcd60e51b815260206004820152606360248201527f4661696c656420746f2073656e642074686520636f6e747269627574696f6e2060448201527f746f2074686520636f6e7472696275746f72206166746572206d756c7469706c60648201527f6520617474656d7074732e20506c656173652074727920616761696e206c617460848201526232b91760e91b60a482015260c4015b60405180910390fd5b5f60045f6005868154811061047057610470610a1b565b5f9182526020808320909101546001600160a01b031683528201929092526040019020555050600101610300565b5050565b6001546001600160a01b031633146104cc5760405162461bcd60e51b815260040161045090610a5b565b6007805461ff0019169055565b5f546001600160a01b031633146105025760405162461bcd60e51b815260040161045090610a5b565b7f00000000000000000000000000000000000000000000000000000000000000004210156105725760405162461bcd60e51b815260206004820152601a60248201527f43616d706169676e20686173206e6f7420656e646564207965740000000000006044820152606401610450565b5f47116105c15760405162461bcd60e51b815260206004820152601960248201527f436f6e74726163742062616c616e636520697320656d707479000000000000006044820152606401610450565b7f00000000000000000000000000000000000000000000000000000000000000006006541015610604576007805461ff0019166103001790556106026102fc565b565b7f000000000000000000000000000000000000000000000000000000000000000060065410610602576007805461ff0019166101001790555f61064561094c565b9050806106cb5760405162461bcd60e51b815260206004820152604860248201527f4661696c656420746f2073656e64205468652063616d706169676e2062616c6160448201527f6e636520746f20746865204f776e65722c20706c65617365207472792061676160648201526734b7103630ba32b960c11b608482015260a401610450565b50565b6007805482919061ff0019166101008360048111156106ef576106ef6109e1565b021790555050565b7f0000000000000000000000000000000000000000000000000000000000000000421061075b5760405162461bcd60e51b815260206004820152601260248201527110d85b5c185a59db881a185cc8195b99195960721b6044820152606401610450565b5f600754610100900460ff166004811115610778576107786109e1565b146107be5760405162461bcd60e51b815260206004820152601660248201527543616d706169676e206973204e6f742061637469766560501b6044820152606401610450565b6003543410156108105760405162461bcd60e51b815260206004820152601b60248201527f436f6e747269627574696f6e20616d6f756e7420746f6f206c6f7700000000006044820152606401610450565b7f0000000000000000000000000000000000000000000000000000000000000000600654106108815760405162461bcd60e51b815260206004820152601d60248201527f5468652063616d706169676e20726561636865732069747320676f616c0000006044820152606401610450565b335f908152600460205260408120805434929061089f908490610aa0565b925050819055503460065f8282546108b79190610aa0565b9091555050600580546001810182555f919091527f036b6384b5eca791c62761152d0c79bb0604c104a5fb6f4eb0703f3154bb3db00180546001600160a01b03191633179055565b5f80600754610100900460ff16600481111561091d5761091d6109e1565b036109285750600190565b505f90565b5f6a636f6e736f6c652e6c6f6790505f80835160208501845afa505050565b5f80546040516001600160a01b03909116904780156108fc029184818181858888f195945050505050565b610602610ab9565b5f6020828403121561098f575f80fd5b5035919050565b5f602082840312156109a6575f80fd5b81356001600160a01b03811681146109bc575f80fd5b9392505050565b5f602082840312156109d3575f80fd5b8135600581106109bc575f80fd5b634e487b7160e01b5f52602160045260245ffd5b6020810160058310610a1557634e487b7160e01b5f52602160045260245ffd5b91905290565b634e487b7160e01b5f52603260045260245ffd5b634e487b7160e01b5f52601160045260245ffd5b5f60018201610a5457610a54610a2f565b5060010190565b60208082526025908201527f4f6e6c7920746865204f776e65722063616e2063616c6c20746869732066756e60408201526431ba34b7b760d91b606082015260800190565b80820180821115610ab357610ab3610a2f565b92915050565b634e487b7160e01b5f52605160045260245ffdfea264697066735822122086924949e71638c39732f584c01d6201559a48b27f729ca9c6c6f90dcb3d7f4e64736f6c6343000818003360c060405234801562000010575f80fd5b5060405162000d8638038062000d86833981016040819052620000339162000174565b5f80546001600160a01b0319166001600160a01b0388161790556003859055858585858585620000678462015180620001f8565b62000073904262000218565b60a0528062000088576007805461ff00191690555b6007805461ff0019166102001790556080839052620000a730620000d9565b50600180546001600160a01b0319166001600160a01b0392909216919091179055506200022e98505050505050505050565b6040516001600160a01b0382166024820152620001279060440160408051601f198184030181529190526020810180516001600160e01b0390811663161765e160e11b179091526200012a16565b50565b62000127816200014060201b620009441760201c565b5f6a636f6e736f6c652e6c6f6790505f80835160208501845afa505050565b6001600160a01b038116811462000127575f80fd5b5f805f805f8060c087890312156200018a575f80fd5b865162000197816200015f565b809650506020870151945060408701519350606087015192506080870151620001c0816200015f565b60a08801519092508015158114620001d6575f80fd5b809150509295509295509295565b634e487b7160e01b5f52601160045260245ffd5b8082028115828204841417620002125762000212620001e4565b92915050565b80820180821115620002125762000212620001e4565b60805160a051610b1a6200026c5f395f81816101350152818161050401526107ae01525f81816101b6015281816105c301526106060152610b1a5ff3fe6080604052600436106100e4575f3560e01c806371aac7f911610087578063d7bb99ba11610057578063d7bb99ba14610268578063f387bcac14610270578063f3a4721a14610294578063ff762044146102bf575f80fd5b806371aac7f9146102025780638a35b88b14610216578063a8622ffe14610235578063b4a99a4e1461024a575f80fd5b806337c08923116100c257806337c089231461019057806340193883146101a557806356c7f461146101d85780636eb51205146101ee575f80fd5b80630b9f2c4a146100e857806312498a70146101245780631f6d494214610165575b5f80fd5b3480156100f3575f80fd5b50610107610102366004610996565b6102d4565b6040516001600160a01b0390911681526020015b60405180910390f35b34801561012f575f80fd5b506101577f000000000000000000000000000000000000000000000000000000000000000081565b60405190815260200161011b565b348015610170575f80fd5b5061015761017f3660046109ad565b60046020525f908152604090205481565b34801561019b575f80fd5b5061015760065481565b3480156101b0575f80fd5b506101577f000000000000000000000000000000000000000000000000000000000000000081565b3480156101e3575f80fd5b506101ec6102fc565b005b3480156101f9575f80fd5b506101ec6104a2565b34801561020d575f80fd5b506101ec6104d9565b348015610221575f80fd5b506101ec6102303660046109da565b6106ce565b348015610240575f80fd5b5061015760035481565b348015610255575f80fd5b505f54610107906001600160a01b031681565b6101ec6106f7565b34801561027b575f80fd5b50610284610916565b604051901515815260200161011b565b34801561029f575f80fd5b506007546102b290610100900460ff1681565b60405161011b9190610a0c565b3480156102ca575f80fd5b5061015760025481565b600581815481106102e3575f80fd5b5f918252602090912001546001600160a01b0316905081565b60055f5b60055481101561049e575f805b6005838154811061032057610320610a32565b5f918252602082200154600580546001600160a01b03909216926108fc92600492908890811061035257610352610a32565b5f9182526020808320909101546001600160a01b03168352820192909252604090810182205490518115909302929091818181858888f193505050509050818061039b90610a5a565b925050801580156103ab57508382105b61030d57806104595760405162461bcd60e51b815260206004820152606360248201527f4661696c656420746f2073656e642074686520636f6e747269627574696f6e2060448201527f746f2074686520636f6e7472696275746f72206166746572206d756c7469706c60648201527f6520617474656d7074732e20506c656173652074727920616761696e206c617460848201526232b91760e91b60a482015260c4015b60405180910390fd5b5f60045f6005868154811061047057610470610a32565b5f9182526020808320909101546001600160a01b031683528201929092526040019020555050600101610300565b5050565b6001546001600160a01b031633146104cc5760405162461bcd60e51b815260040161045090610a72565b6007805461ff0019169055565b5f546001600160a01b031633146105025760405162461bcd60e51b815260040161045090610a72565b7f00000000000000000000000000000000000000000000000000000000000000004210156105725760405162461bcd60e51b815260206004820152601a60248201527f43616d706169676e20686173206e6f7420656e646564207965740000000000006044820152606401610450565b5f47116105c15760405162461bcd60e51b815260206004820152601960248201527f436f6e74726163742062616c616e636520697320656d707479000000000000006044820152606401610450565b7f00000000000000000000000000000000000000000000000000000000000000006006541015610604576007805461ff0019166103001790556106026102fc565b565b7f000000000000000000000000000000000000000000000000000000000000000060065410610602576007805461ff0019166101001790555f610645610963565b9050806106cb5760405162461bcd60e51b815260206004820152604860248201527f4661696c656420746f2073656e64205468652063616d706169676e2062616c6160448201527f6e636520746f20746865204f776e65722c20706c65617365207472792061676160648201526734b7103630ba32b960c11b608482015260a401610450565b50565b6007805482919061ff0019166101008360048111156106ef576106ef6109f8565b021790555050565b5f600754610100900460ff166004811115610714576107146109f8565b1461075a5760405162461bcd60e51b815260206004820152601660248201527543616d706169676e206973206e6f742061637469766560501b6044820152606401610450565b6003543410156107ac5760405162461bcd60e51b815260206004820152601b60248201527f436f6e747269627574696f6e20616d6f756e7420746f6f206c6f7700000000006044820152606401610450565b7f000000000000000000000000000000000000000000000000000000000000000042106108105760405162461bcd60e51b815260206004820152601260248201527110d85b5c185a59db881a185cc8195b99195960721b6044820152606401610450565b6003543410156108625760405162461bcd60e51b815260206004820152601b60248201527f436f6e747269627574696f6e20616d6f756e7420746f6f206c6f7700000000006044820152606401610450565b335f9081526004602052604081208054349290610880908490610ab7565b925050819055503460065f8282546108989190610ab7565b9091555050600580546001810182555f919091527f036b6384b5eca791c62761152d0c79bb0604c104a5fb6f4eb0703f3154bb3db00180546001600160a01b031916339081179091556040513481527f1bb460ccaaf70fbacfec17a376f8acbd278c1405590ffcc8ebe4b88daf4f64ad9060200160405180910390a2565b5f80600754610100900460ff166004811115610934576109346109f8565b0361093f5750600190565b505f90565b5f6a636f6e736f6c652e6c6f6790505f80835160208501845afa505050565b5f80546040516001600160a01b03909116904780156108fc029184818181858888f195945050505050565b610602610ad0565b5f602082840312156109a6575f80fd5b5035919050565b5f602082840312156109bd575f80fd5b81356001600160a01b03811681146109d3575f80fd5b9392505050565b5f602082840312156109ea575f80fd5b8135600581106109d3575f80fd5b634e487b7160e01b5f52602160045260245ffd5b6020810160058310610a2c57634e487b7160e01b5f52602160045260245ffd5b91905290565b634e487b7160e01b5f52603260045260245ffd5b634e487b7160e01b5f52601160045260245ffd5b5f60018201610a6b57610a6b610a46565b5060010190565b60208082526025908201527f4f6e6c7920746865204f776e65722063616e2063616c6c20746869732066756e60408201526431ba34b7b760d91b606082015260800190565b80820180821115610aca57610aca610a46565b92915050565b634e487b7160e01b5f52605160045260245ffdfea2646970667358221220e86b1e50e64fb5d55767674255e9f253455b25f7a2be31816a74aded2a7bb6c264736f6c63430008180033a264697066735822122019b1490b4106fa16b7f5ab0a358d84cacf28ec7da55eb00e0f4da03c6018416964736f6c63430008180033",
    "sourcePath": "c:/Users/Bebo/CrowdFunding/BlockChainWithBackEnd/contracts/CampaginFactory.sol",
    "compiler": {
        "name": "solc",
        "version": "0.8.24+commit.e11b9ed9"
    },
    "functionHashes": {
        "admin()": "f851a440",
        "contribute(address)": "73e888fd",
        "createProject(uint256,uint256,uint256,uint8,bool)": "d66e9af9",
        "deployedProjects(uint256)": "9ec6deaf",
        "getDeployedProjects()": "7ac3886e",
        "getDeployedProjectsByUser(address)": "890990a8",
        "userCampagins(address,uint256)": "dd9c2ad9"
    },
    "gasEstimates": {
        "creation": {
            "codeDepositCost": "2470600",
            "executionCost": "infinite",
            "totalCost": "infinite"
        },
        "external": {
            "admin()": "infinite",
            "contribute(address)": "infinite",
            "createProject(uint256,uint256,uint256,uint8,bool)": "infinite",
            "deployedProjects(uint256)": "4610",
            "getDeployedProjects()": "infinite",
            "getDeployedProjectsByUser(address)": "infinite",
            "userCampagins(address,uint256)": "4823"
        }
    }
}