{
    "contractName": "CapmpaginFactory",
    "abi": [
        {
            "inputs": [
                {
                    "internalType": "uint256",
                    "name": "minimumContribution",
                    "type": "uint256"
                },
                {
                    "internalType": "uint256",
                    "name": "durationInDays",
                    "type": "uint256"
                },
                {
                    "internalType": "uint256",
                    "name": "Goal",
                    "type": "uint256"
                },
                {
                    "internalType": "enum CapmpaginFactory.CampaignType",
                    "name": "campType",
                    "type": "uint8"
                }
            ],
            "name": "createProject",
            "outputs": [],
            "stateMutability": "nonpayable",
            "type": "function"
        },
        {
            "inputs": [
                {
                    "internalType": "uint256",
                    "name": "",
                    "type": "uint256"
                }
            ],
            "name": "deployedProjects",
            "outputs": [
                {
                    "internalType": "contract BaseCampaign",
                    "name": "",
                    "type": "address"
                }
            ],
            "stateMutability": "view",
            "type": "function"
        },
        {
            "inputs": [],
            "name": "getDeployedProjects",
            "outputs": [
                {
                    "internalType": "contract BaseCampaign[]",
                    "name": "",
                    "type": "address[]"
                }
            ],
            "stateMutability": "view",
            "type": "function"
        }
    ],
    "bytecode": "608060405234801561001057600080fd5b50612c81806100206000396000f3fe608060405234801561001057600080fd5b50600436106100415760003560e01c806354613790146100465780637ac3886e1461005b5780639ec6deaf14610079575b600080fd5b6100596100543660046102fe565b6100a4565b005b61006361024b565b6040516100709190610343565b60405180910390f35b61008c610087366004610390565b6102ad565b6040516001600160a01b039091168152602001610070565b60008160028111156100b8576100b86103a9565b03610161576000338585856040516100cf906102d7565b6001600160a01b039094168452602084019290925260408301526060820152608001604051809103906000f08015801561010d573d6000803e3d6000fd5b50600080546001810182559080527f290decd9548b62a8d60345a988386fc84ba6bc95484008f6362f93160ef3e5630180546001600160a01b0319166001600160a01b039290921691909117905550610245565b6001816002811115610175576101756103a9565b0361018c576000338585856040516100cf906102e4565b60028160028111156101a0576101a06103a9565b03610245576000338585856040516101b7906102f1565b6001600160a01b039094168452602084019290925260408301526060820152608001604051809103906000f0801580156101f5573d6000803e3d6000fd5b50600080546001810182559080527f290decd9548b62a8d60345a988386fc84ba6bc95484008f6362f93160ef3e5630180546001600160a01b0319166001600160a01b0392909216919091179055505b50505050565b606060008054806020026020016040519081016040528092919081815260200182805480156102a357602002820191906000526020600020905b81546001600160a01b03168152600190910190602001808311610285575b5050505050905090565b600081815481106102bd57600080fd5b6000918252602090912001546001600160a01b0316905081565b610cf7806103c083390190565b610de0806110b783390190565b610db580611e9783390190565b6000806000806080858703121561031457600080fd5b84359350602085013592506040850135915060608501356003811061033857600080fd5b939692955090935050565b6020808252825182820181905260009190848201906040850190845b818110156103845783516001600160a01b03168352928401929184019160010161035f565b50909695505050505050565b6000602082840312156103a257600080fd5b5035919050565b634e487b7160e01b600052602160045260246000fdfe60c06040523480156200001157600080fd5b5060405162000cf738038062000cf783398101604081905262000034916200012b565b600080546001600160a01b0319166001600160a01b0386161790556002839055838383836200006782620151806200018e565b620000739042620001ae565b60a0526006805461ff00191661020017905560808190526200009530620000a3565b5050505050505050620001c4565b6040516001600160a01b0382166024820152620000f19060440160408051601f198184030181529190526020810180516001600160e01b0390811663161765e160e11b17909152620000f416565b50565b620000f1816200010a60201b6200085a1760201c565b60006a636f6e736f6c652e6c6f679050600080835160208501845afa505050565b600080600080608085870312156200014257600080fd5b84516001600160a01b03811681146200015a57600080fd5b60208601516040870151606090970151919890975090945092505050565b634e487b7160e01b600052601160045260246000fd5b8082028115828204841417620001a857620001a862000178565b92915050565b80820180821115620001a857620001a862000178565b60805160a051610aff620001f8600039600081816101160152818161053301526107100152600061019b0152610aff6000f3fe6080604052600436106100c25760003560e01c80635c43217b1161007f578063b4a99a4e11610059578063b4a99a4e14610212578063f387bcac14610232578063f3a4721a14610257578063ff7620441461028357600080fd5b80635c43217b146101d457806371aac7f9146101e7578063a8622ffe146101fc57600080fd5b80630b9f2c4a146100c757806312498a70146101045780631f6d49421461014657806337c0892314610173578063401938831461018957806356c7f461146101bd575b600080fd5b3480156100d357600080fd5b506100e76100e23660046108b1565b610299565b6040516001600160a01b0390911681526020015b60405180910390f35b34801561011057600080fd5b506101387f000000000000000000000000000000000000000000000000000000000000000081565b6040519081526020016100fb565b34801561015257600080fd5b506101386101613660046108ca565b60036020526000908152604090205481565b34801561017f57600080fd5b5061013860055481565b34801561019557600080fd5b506101387f000000000000000000000000000000000000000000000000000000000000000081565b3480156101c957600080fd5b506101d26102c3565b005b6101d26101e2366004610910565b61047b565b3480156101f357600080fd5b506101d26106a6565b34801561020857600080fd5b5061013860025481565b34801561021e57600080fd5b506000546100e7906001600160a01b031681565b34801561023e57600080fd5b5061024761082a565b60405190151581526020016100fb565b34801561026357600080fd5b5060065461027690610100900460ff1681565b6040516100fb91906109d7565b34801561028f57600080fd5b5061013860015481565b600481815481106102a957600080fd5b6000918252602090912001546001600160a01b0316905081565b600560005b600454811015610477576000805b600483815481106102e9576102e96109ff565b6000918252602082200154600480546001600160a01b03909216926108fc92600392908890811061031c5761031c6109ff565b60009182526020808320909101546001600160a01b03168352820192909252604090810182205490518115909302929091818181858888f193505050509050818061036690610a2b565b9250508015801561037657508382105b6102d657806104245760405162461bcd60e51b815260206004820152606360248201527f4661696c656420746f2073656e642074686520636f6e747269627574696f6e2060448201527f746f2074686520636f6e7472696275746f72206166746572206d756c7469706c60648201527f6520617474656d7074732e20506c656173652074727920616761696e206c617460848201526232b91760e91b60a482015260c4015b60405180910390fd5b6000600360006004868154811061043d5761043d6109ff565b60009182526020808320909101546001600160a01b031683528201929092526040019020555081905061046f81610a2b565b9150506102c8565b5050565b6000600654610100900460ff166003811115610499576104996109c1565b146104df5760405162461bcd60e51b815260206004820152601660248201527543616d706169676e206973206e6f742061637469766560501b604482015260640161041b565b6002543410156105315760405162461bcd60e51b815260206004820152601b60248201527f436f6e747269627574696f6e20616d6f756e7420746f6f206c6f770000000000604482015260640161041b565b7f000000000000000000000000000000000000000000000000000000000000000042106105955760405162461bcd60e51b815260206004820152601260248201527110d85b5c185a59db881a185cc8195b99195960721b604482015260640161041b565b6002543410156105e75760405162461bcd60e51b815260206004820152601b60248201527f436f6e747269627574696f6e20616d6f756e7420746f6f206c6f770000000000604482015260640161041b565b3360009081526003602052604081208054349290610606908490610a44565b92505081905550346005600082825461061f9190610a44565b9091555050600480546001810182556000919091527f8a35acfbc15ff81a39ae7d344fd709f28e8600b4aa8c65c6b64bfe7fe36bd19b0180546001600160a01b031916339081179091556040517f6c6bd9cc7b2797e318cc44b0a8ff8f992f1d76f11fb194e95e65272c593d31359061069b9034908590610a5d565b60405180910390a250565b6000546001600160a01b0316331461070e5760405162461bcd60e51b815260206004820152602560248201527f4f6e6c7920746865204f776e65722063616e2063616c6c20746869732066756e60448201526431ba34b7b760d91b606482015260840161041b565b7f000000000000000000000000000000000000000000000000000000000000000042101561077e5760405162461bcd60e51b815260206004820152601a60248201527f43616d706169676e20686173206e6f7420656e64656420796574000000000000604482015260640161041b565b600047116107ce5760405162461bcd60e51b815260206004820152601960248201527f436f6e74726163742062616c616e636520697320656d70747900000000000000604482015260640161041b565b60006107d861087b565b9050806108275760405162461bcd60e51b815260206004820152601960248201527f4661696c656420746f2073656e642062616c616e636520746f00000000000000604482015260640161041b565b50565b600080600654610100900460ff166003811115610849576108496109c1565b036108545750600190565b50600090565b60006a636f6e736f6c652e6c6f679050600080835160208501845afa505050565b600080546040516001600160a01b03909116904780156108fc029184818181858888f195945050505050565b6108af610ab3565b565b6000602082840312156108c357600080fd5b5035919050565b6000602082840312156108dc57600080fd5b81356001600160a01b03811681146108f357600080fd5b9392505050565b634e487b7160e01b600052604160045260246000fd5b60006020828403121561092257600080fd5b813567ffffffffffffffff8082111561093a57600080fd5b818401915084601f83011261094e57600080fd5b813581811115610960576109606108fa565b604051601f8201601f19908116603f01168101908382118183101715610988576109886108fa565b816040528281528760208487010111156109a157600080fd5b826020860160208301376000928101602001929092525095945050505050565b634e487b7160e01b600052602160045260246000fd5b60208101600483106109f957634e487b7160e01b600052602160045260246000fd5b91905290565b634e487b7160e01b600052603260045260246000fd5b634e487b7160e01b600052601160045260246000fd5b600060018201610a3d57610a3d610a15565b5060010190565b80820180821115610a5757610a57610a15565b92915050565b82815260006020604081840152835180604085015260005b81811015610a9157858101830151858201606001528201610a75565b506000606082860101526060601f19601f830116850101925050509392505050565b634e487b7160e01b600052605160045260246000fdfea2646970667358221220d29e1ae3a73436ee426ff58a5af06db7f69e59a948df8c01914b2b6758faae0564736f6c6343000813003360c060405260006007553480156200001657600080fd5b5060405162000de038038062000de0833981016040819052620000399162000130565b600080546001600160a01b0319166001600160a01b0386161790556002839055838383836200006c826201518062000193565b620000789042620001b3565b60a0526006805461ff00191661020017905560808190526200009a30620000a8565b5050505050505050620001c9565b6040516001600160a01b0382166024820152620000f69060440160408051601f198184030181529190526020810180516001600160e01b0390811663161765e160e11b17909152620000f916565b50565b620000f6816200010f60201b6200092b1760201c565b60006a636f6e736f6c652e6c6f679050600080835160208501845afa505050565b600080600080608085870312156200014757600080fd5b84516001600160a01b03811681146200015f57600080fd5b60208601516040870151606090970151919890975090945092505050565b634e487b7160e01b600052601160045260246000fd5b8082028115828204841417620001ad57620001ad6200017d565b92915050565b80820180821115620001ad57620001ad6200017d565b60805160a051610bce62000212600039600081816101160152818161047d015261072f01526000818161019b01528181610597015281816107ef01526108320152610bce6000f3fe6080604052600436106100c25760003560e01c80635c43217b1161007f578063b4a99a4e11610059578063b4a99a4e14610212578063f387bcac14610232578063f3a4721a14610257578063ff7620441461028357600080fd5b80635c43217b146101d457806371aac7f9146101e7578063a8622ffe146101fc57600080fd5b80630b9f2c4a146100c757806312498a70146101045780631f6d49421461014657806337c0892314610173578063401938831461018957806356c7f461146101bd575b600080fd5b3480156100d357600080fd5b506100e76100e2366004610980565b610299565b6040516001600160a01b0390911681526020015b60405180910390f35b34801561011057600080fd5b506101387f000000000000000000000000000000000000000000000000000000000000000081565b6040519081526020016100fb565b34801561015257600080fd5b50610138610161366004610999565b60036020526000908152604090205481565b34801561017f57600080fd5b5061013860055481565b34801561019557600080fd5b506101387f000000000000000000000000000000000000000000000000000000000000000081565b3480156101c957600080fd5b506101d26102c3565b005b6101d26101e23660046109df565b61047b565b3480156101f357600080fd5b506101d26106c5565b34801561020857600080fd5b5061013860025481565b34801561021e57600080fd5b506000546100e7906001600160a01b031681565b34801561023e57600080fd5b506102476108fb565b60405190151581526020016100fb565b34801561026357600080fd5b5060065461027690610100900460ff1681565b6040516100fb9190610aa6565b34801561028f57600080fd5b5061013860015481565b600481815481106102a957600080fd5b6000918252602090912001546001600160a01b0316905081565b600560005b600454811015610477576000805b600483815481106102e9576102e9610ace565b6000918252602082200154600480546001600160a01b03909216926108fc92600392908890811061031c5761031c610ace565b60009182526020808320909101546001600160a01b03168352820192909252604090810182205490518115909302929091818181858888f193505050509050818061036690610afa565b9250508015801561037657508382105b6102d657806104245760405162461bcd60e51b815260206004820152606360248201527f4661696c656420746f2073656e642074686520636f6e747269627574696f6e2060448201527f746f2074686520636f6e7472696275746f72206166746572206d756c7469706c60648201527f6520617474656d7074732e20506c656173652074727920616761696e206c617460848201526232b91760e91b60a482015260c4015b60405180910390fd5b6000600360006004868154811061043d5761043d610ace565b60009182526020808320909101546001600160a01b031683528201929092526040019020555081905061046f81610afa565b9150506102c8565b5050565b7f000000000000000000000000000000000000000000000000000000000000000042106104df5760405162461bcd60e51b815260206004820152601260248201527110d85b5c185a59db881a185cc8195b99195960721b604482015260640161041b565b6000600654610100900460ff1660038111156104fd576104fd610a90565b146105435760405162461bcd60e51b815260206004820152601660248201527543616d706169676e206973204e6f742061637469766560501b604482015260640161041b565b6002543410156105955760405162461bcd60e51b815260206004820152601b60248201527f436f6e747269627574696f6e20616d6f756e7420746f6f206c6f770000000000604482015260640161041b565b7f0000000000000000000000000000000000000000000000000000000000000000600554106106065760405162461bcd60e51b815260206004820152601d60248201527f5468652063616d706169676e20726561636865732069747320676f616c000000604482015260640161041b565b3360009081526003602052604081208054349290610625908490610b13565b92505081905550346005600082825461063e9190610b13565b9091555050600480546001810182556000919091527f8a35acfbc15ff81a39ae7d344fd709f28e8600b4aa8c65c6b64bfe7fe36bd19b0180546001600160a01b031916339081179091556040517f6c6bd9cc7b2797e318cc44b0a8ff8f992f1d76f11fb194e95e65272c593d3135906106ba9034908590610b2c565b60405180910390a250565b6000546001600160a01b0316331461072d5760405162461bcd60e51b815260206004820152602560248201527f4f6e6c7920746865204f776e65722063616e2063616c6c20746869732066756e60448201526431ba34b7b760d91b606482015260840161041b565b7f000000000000000000000000000000000000000000000000000000000000000042101561079d5760405162461bcd60e51b815260206004820152601a60248201527f43616d706169676e20686173206e6f7420656e64656420796574000000000000604482015260640161041b565b600047116107ed5760405162461bcd60e51b815260206004820152601960248201527f436f6e74726163742062616c616e636520697320656d70747900000000000000604482015260640161041b565b7f00000000000000000000000000000000000000000000000000000000000000006005541015610830576006805461ff00191661030017905561082e6102c3565b565b7f00000000000000000000000000000000000000000000000000000000000000006005541061082e576006805461ff001916610100179055600061087261094c565b9050806108f85760405162461bcd60e51b815260206004820152604860248201527f4661696c656420746f2073656e64205468652063616d706169676e2062616c6160448201527f6e636520746f20746865204f776e65722c20706c65617365207472792061676160648201526734b7103630ba32b960c11b608482015260a40161041b565b50565b600080600654610100900460ff16600381111561091a5761091a610a90565b036109255750600190565b50600090565b60006a636f6e736f6c652e6c6f679050600080835160208501845afa505050565b600080546040516001600160a01b03909116904780156108fc029184818181858888f195945050505050565b61082e610b82565b60006020828403121561099257600080fd5b5035919050565b6000602082840312156109ab57600080fd5b81356001600160a01b03811681146109c257600080fd5b9392505050565b634e487b7160e01b600052604160045260246000fd5b6000602082840312156109f157600080fd5b813567ffffffffffffffff80821115610a0957600080fd5b818401915084601f830112610a1d57600080fd5b813581811115610a2f57610a2f6109c9565b604051601f8201601f19908116603f01168101908382118183101715610a5757610a576109c9565b81604052828152876020848701011115610a7057600080fd5b826020860160208301376000928101602001929092525095945050505050565b634e487b7160e01b600052602160045260246000fd5b6020810160048310610ac857634e487b7160e01b600052602160045260246000fd5b91905290565b634e487b7160e01b600052603260045260246000fd5b634e487b7160e01b600052601160045260246000fd5b600060018201610b0c57610b0c610ae4565b5060010190565b80820180821115610b2657610b26610ae4565b92915050565b82815260006020604081840152835180604085015260005b81811015610b6057858101830151858201606001528201610b44565b506000606082860101526060601f19601f830116850101925050509392505050565b634e487b7160e01b600052605160045260246000fdfea2646970667358221220dd930580f45dcd8f3bdfc0e6731038c7121c65c2ee4b03a4a274248bf306d3dd64736f6c6343000813003360c06040523480156200001157600080fd5b5060405162000db538038062000db583398101604081905262000034916200012b565b600080546001600160a01b0319166001600160a01b0386161790556002839055838383836200006782620151806200018e565b620000739042620001ae565b60a0526006805461ff00191661020017905560808190526200009530620000a3565b5050505050505050620001c4565b6040516001600160a01b0382166024820152620000f19060440160408051601f198184030181529190526020810180516001600160e01b0390811663161765e160e11b17909152620000f416565b50565b620000f1816200010a60201b6200090c1760201c565b60006a636f6e736f6c652e6c6f679050600080835160208501845afa505050565b600080600080608085870312156200014257600080fd5b84516001600160a01b03811681146200015a57600080fd5b60208601516040870151606090970151919890975090945092505050565b634e487b7160e01b600052601160045260246000fd5b8082028115828204841417620001a857620001a862000178565b92915050565b80820180821115620001a857620001a862000178565b60805160a051610baf620002066000396000818161011601528181610533015261071001526000818161019b015281816107d001526108130152610baf6000f3fe6080604052600436106100c25760003560e01c80635c43217b1161007f578063b4a99a4e11610059578063b4a99a4e14610212578063f387bcac14610232578063f3a4721a14610257578063ff7620441461028357600080fd5b80635c43217b146101d457806371aac7f9146101e7578063a8622ffe146101fc57600080fd5b80630b9f2c4a146100c757806312498a70146101045780631f6d49421461014657806337c0892314610173578063401938831461018957806356c7f461146101bd575b600080fd5b3480156100d357600080fd5b506100e76100e2366004610961565b610299565b6040516001600160a01b0390911681526020015b60405180910390f35b34801561011057600080fd5b506101387f000000000000000000000000000000000000000000000000000000000000000081565b6040519081526020016100fb565b34801561015257600080fd5b5061013861016136600461097a565b60036020526000908152604090205481565b34801561017f57600080fd5b5061013860055481565b34801561019557600080fd5b506101387f000000000000000000000000000000000000000000000000000000000000000081565b3480156101c957600080fd5b506101d26102c3565b005b6101d26101e23660046109c0565b61047b565b3480156101f357600080fd5b506101d26106a6565b34801561020857600080fd5b5061013860025481565b34801561021e57600080fd5b506000546100e7906001600160a01b031681565b34801561023e57600080fd5b506102476108dc565b60405190151581526020016100fb565b34801561026357600080fd5b5060065461027690610100900460ff1681565b6040516100fb9190610a87565b34801561028f57600080fd5b5061013860015481565b600481815481106102a957600080fd5b6000918252602090912001546001600160a01b0316905081565b600560005b600454811015610477576000805b600483815481106102e9576102e9610aaf565b6000918252602082200154600480546001600160a01b03909216926108fc92600392908890811061031c5761031c610aaf565b60009182526020808320909101546001600160a01b03168352820192909252604090810182205490518115909302929091818181858888f193505050509050818061036690610adb565b9250508015801561037657508382105b6102d657806104245760405162461bcd60e51b815260206004820152606360248201527f4661696c656420746f2073656e642074686520636f6e747269627574696f6e2060448201527f746f2074686520636f6e7472696275746f72206166746572206d756c7469706c60648201527f6520617474656d7074732e20506c656173652074727920616761696e206c617460848201526232b91760e91b60a482015260c4015b60405180910390fd5b6000600360006004868154811061043d5761043d610aaf565b60009182526020808320909101546001600160a01b031683528201929092526040019020555081905061046f81610adb565b9150506102c8565b5050565b6000600654610100900460ff16600381111561049957610499610a71565b146104df5760405162461bcd60e51b815260206004820152601660248201527543616d706169676e206973206e6f742061637469766560501b604482015260640161041b565b6002543410156105315760405162461bcd60e51b815260206004820152601b60248201527f436f6e747269627574696f6e20616d6f756e7420746f6f206c6f770000000000604482015260640161041b565b7f000000000000000000000000000000000000000000000000000000000000000042106105955760405162461bcd60e51b815260206004820152601260248201527110d85b5c185a59db881a185cc8195b99195960721b604482015260640161041b565b6002543410156105e75760405162461bcd60e51b815260206004820152601b60248201527f436f6e747269627574696f6e20616d6f756e7420746f6f206c6f770000000000604482015260640161041b565b3360009081526003602052604081208054349290610606908490610af4565b92505081905550346005600082825461061f9190610af4565b9091555050600480546001810182556000919091527f8a35acfbc15ff81a39ae7d344fd709f28e8600b4aa8c65c6b64bfe7fe36bd19b0180546001600160a01b031916339081179091556040517f6c6bd9cc7b2797e318cc44b0a8ff8f992f1d76f11fb194e95e65272c593d31359061069b9034908590610b0d565b60405180910390a250565b6000546001600160a01b0316331461070e5760405162461bcd60e51b815260206004820152602560248201527f4f6e6c7920746865204f776e65722063616e2063616c6c20746869732066756e60448201526431ba34b7b760d91b606482015260840161041b565b7f000000000000000000000000000000000000000000000000000000000000000042101561077e5760405162461bcd60e51b815260206004820152601a60248201527f43616d706169676e20686173206e6f7420656e64656420796574000000000000604482015260640161041b565b600047116107ce5760405162461bcd60e51b815260206004820152601960248201527f436f6e74726163742062616c616e636520697320656d70747900000000000000604482015260640161041b565b7f00000000000000000000000000000000000000000000000000000000000000006005541015610811576006805461ff00191661030017905561080f6102c3565b565b7f00000000000000000000000000000000000000000000000000000000000000006005541061080f576006805461ff001916610100179055600061085361092d565b9050806108d95760405162461bcd60e51b815260206004820152604860248201527f4661696c656420746f2073656e64205468652063616d706169676e2062616c6160448201527f6e636520746f20746865204f776e65722c20706c65617365207472792061676160648201526734b7103630ba32b960c11b608482015260a40161041b565b50565b600080600654610100900460ff1660038111156108fb576108fb610a71565b036109065750600190565b50600090565b60006a636f6e736f6c652e6c6f679050600080835160208501845afa505050565b600080546040516001600160a01b03909116904780156108fc029184818181858888f195945050505050565b61080f610b63565b60006020828403121561097357600080fd5b5035919050565b60006020828403121561098c57600080fd5b81356001600160a01b03811681146109a357600080fd5b9392505050565b634e487b7160e01b600052604160045260246000fd5b6000602082840312156109d257600080fd5b813567ffffffffffffffff808211156109ea57600080fd5b818401915084601f8301126109fe57600080fd5b813581811115610a1057610a106109aa565b604051601f8201601f19908116603f01168101908382118183101715610a3857610a386109aa565b81604052828152876020848701011115610a5157600080fd5b826020860160208301376000928101602001929092525095945050505050565b634e487b7160e01b600052602160045260246000fd5b6020810160048310610aa957634e487b7160e01b600052602160045260246000fd5b91905290565b634e487b7160e01b600052603260045260246000fd5b634e487b7160e01b600052601160045260246000fd5b600060018201610aed57610aed610ac5565b5060010190565b80820180821115610b0757610b07610ac5565b92915050565b82815260006020604081840152835180604085015260005b81811015610b4157858101830151858201606001528201610b25565b506000606082860101526060601f19601f830116850101925050509392505050565b634e487b7160e01b600052605160045260246000fdfea2646970667358221220942a736fe1834f07083caf992bf8788590f9d480f6616ed9e70bb5bc6bae748864736f6c63430008130033a2646970667358221220216aa163f7f9698b580236b8de2ef80ddc042f6e12b4653c5c88c6a575d1077964736f6c63430008130033",
    "sourcePath": "c:/Users/Bebo/CrowdFunding/BlockChainWithBackEnd/contracts/CampaginFactory.sol",
    "compiler": {
        "name": "solc",
        "version": "0.8.19+commit.7dd6d404"
    },
    "functionHashes": {
        "createProject(uint256,uint256,uint256,uint8)": "54613790",
        "deployedProjects(uint256)": "9ec6deaf",
        "getDeployedProjects()": "7ac3886e"
    },
    "gasEstimates": {
        "creation": {
            "codeDepositCost": "2278600",
            "executionCost": "2441",
            "totalCost": "2281041"
        },
        "external": {
            "createProject(uint256,uint256,uint256,uint8)": "infinite",
            "deployedProjects(uint256)": "4636",
            "getDeployedProjects()": "infinite"
        }
    }
}