{
    "contractName": "CapmpaginFactory",
    "abi": [
        {
            "inputs": [
                {
                    "internalType": "uint256",
                    "name": "minimumContribution",
                    "type": "uint256"
                },
                {
                    "internalType": "uint256",
                    "name": "durationInDays",
                    "type": "uint256"
                },
                {
                    "internalType": "uint256",
                    "name": "Goal",
                    "type": "uint256"
                },
                {
                    "internalType": "enum CapmpaginFactory.CampaignType",
                    "name": "campType",
                    "type": "uint8"
                }
            ],
            "name": "createProject",
            "outputs": [],
            "stateMutability": "nonpayable",
            "type": "function"
        },
        {
            "inputs": [
                {
                    "internalType": "uint256",
                    "name": "",
                    "type": "uint256"
                }
            ],
            "name": "deployedProjects",
            "outputs": [
                {
                    "internalType": "contract BaseCampaign",
                    "name": "",
                    "type": "address"
                }
            ],
            "stateMutability": "view",
            "type": "function"
        },
        {
            "inputs": [],
            "name": "getDeployedProjects",
            "outputs": [
                {
                    "internalType": "contract BaseCampaign[]",
                    "name": "",
                    "type": "address[]"
                }
            ],
            "stateMutability": "view",
            "type": "function"
        }
    ],
    "bytecode": "608060405234801561001057600080fd5b506123ff806100206000396000f3fe608060405234801561001057600080fd5b50600436106100415760003560e01c806354613790146100465780637ac3886e1461005b5780639ec6deaf14610079575b600080fd5b6100596100543660046102fe565b6100a4565b005b61006361024b565b6040516100709190610343565b60405180910390f35b61008c610087366004610390565b6102ad565b6040516001600160a01b039091168152602001610070565b60008160028111156100b8576100b86103a9565b03610161576000338585856040516100cf906102d7565b6001600160a01b039094168452602084019290925260408301526060820152608001604051809103906000f08015801561010d573d6000803e3d6000fd5b50600080546001810182559080527f290decd9548b62a8d60345a988386fc84ba6bc95484008f6362f93160ef3e5630180546001600160a01b0319166001600160a01b039290921691909117905550610245565b6001816002811115610175576101756103a9565b0361018c576000338585856040516100cf906102e4565b60028160028111156101a0576101a06103a9565b03610245576000338585856040516101b7906102f1565b6001600160a01b039094168452602084019290925260408301526060820152608001604051809103906000f0801580156101f5573d6000803e3d6000fd5b50600080546001810182559080527f290decd9548b62a8d60345a988386fc84ba6bc95484008f6362f93160ef3e5630180546001600160a01b0319166001600160a01b0392909216919091179055505b50505050565b606060008054806020026020016040519081016040528092919081815260200182805480156102a357602002820191906000526020600020905b81546001600160a01b03168152600190910190602001808311610285575b5050505050905090565b600081815481106102bd57600080fd5b6000918252602090912001546001600160a01b0316905081565b610aae806103c083390190565b610aae80610e6e83390190565b610aae8061191c83390190565b6000806000806080858703121561031457600080fd5b84359350602085013592506040850135915060608501356003811061033857600080fd5b939692955090935050565b6020808252825182820181905260009190848201906040850190845b818110156103845783516001600160a01b03168352928401929184019160010161035f565b50909695505050505050565b6000602082840312156103a257600080fd5b5035919050565b634e487b7160e01b600052602160045260246000fdfe608060405234801561001057600080fd5b50604051610aae380380610aae83398101604081905261002f9161008c565b600080546001600160a01b0319166001600160a01b03861617905560018390558383838361006082620151806100ed565b61006a904261010a565b6006556007805461ff0019166102001790556002555061011d95505050505050565b600080600080608085870312156100a257600080fd5b84516001600160a01b03811681146100b957600080fd5b60208601516040870151606090970151919890975090945092505050565b634e487b7160e01b600052601160045260246000fd5b8082028115828204841417610104576101046100d7565b92915050565b80820180821115610104576101046100d7565b6109828061012c6000396000f3fe6080604052600436106100c25760003560e01c80635c43217b1161007f578063a8622ffe11610059578063a8622ffe146101f1578063b4a99a4e14610207578063f387bcac14610227578063f3a4721a1461024c57600080fd5b80635c43217b1461019857806371aac7f9146101ab57806381d12c58146101c057600080fd5b80630b9f2c4a146100c757806312498a70146101045780631f6d49421461012857806337c0892314610155578063401938831461016b57806356c7f46114610181575b600080fd5b3480156100d357600080fd5b506100e76100e23660046106bf565b610278565b6040516001600160a01b0390911681526020015b60405180910390f35b34801561011057600080fd5b5061011a60065481565b6040519081526020016100fb565b34801561013457600080fd5b5061011a6101433660046106d8565b60036020526000908152604090205481565b34801561016157600080fd5b5061011a60055481565b34801561017757600080fd5b5061011a60025481565b34801561018d57600080fd5b506101966102a2565b005b6101966101a636600461071e565b610359565b3480156101b757600080fd5b506101966104b5565b3480156101cc57600080fd5b506101e06101db3660046106bf565b6105b0565b6040516100fb959493929190610815565b3480156101fd57600080fd5b5061011a60015481565b34801561021357600080fd5b506000546100e7906001600160a01b031681565b34801561023357600080fd5b5061023c61068f565b60405190151581526020016100fb565b34801561025857600080fd5b5060075461026b90610100900460ff1681565b6040516100fb919061086b565b6004818154811061028857600080fd5b6000918252602090912001546001600160a01b0316905081565b60005b60045481101561035657600481815481106102c2576102c2610893565b6000918252602082200154600480546001600160a01b03909216926108fc9260039290869081106102f5576102f5610893565b60009182526020808320909101546001600160a01b03168352820192909252604090810182205490518115909302929091818181858888f19350505050158015610343573d6000803e3d6000fd5b508061034e816108bf565b9150506102a5565b50565b60065442106103a45760405162461bcd60e51b815260206004820152601260248201527110d85b5c185a59db881a185cc8195b99195960721b60448201526064015b60405180910390fd5b6001543410156103f65760405162461bcd60e51b815260206004820152601b60248201527f436f6e747269627574696f6e20616d6f756e7420746f6f206c6f770000000000604482015260640161039b565b33600090815260036020526040812080543492906104159084906108d8565b92505081905550346005600082825461042e91906108d8565b9091555050600480546001810182556000919091527f8a35acfbc15ff81a39ae7d344fd709f28e8600b4aa8c65c6b64bfe7fe36bd19b0180546001600160a01b031916339081179091556040517f6c6bd9cc7b2797e318cc44b0a8ff8f992f1d76f11fb194e95e65272c593d3135906104aa90349085906108f1565b60405180910390a250565b6000546001600160a01b0316331461051d5760405162461bcd60e51b815260206004820152602560248201527f4f6e6c7920746865204f776e65722063616e2063616c6c20746869732066756e60448201526431ba34b7b760d91b606482015260840161039b565b60065442101561056f5760405162461bcd60e51b815260206004820152601a60248201527f43616d706169676e20686173206e6f7420656e64656420796574000000000000604482015260640161039b565b6002546005541015610594576007805461ff0019166103001790556105926102a2565b565b60025460055410610592576007805461ff001916610100179055565b600881815481106105c057600080fd5b90600052602060002090600402016000915090508060000180546105e390610912565b80601f016020809104026020016040519081016040528092919081815260200182805461060f90610912565b801561065c5780601f106106315761010080835404028352916020019161065c565b820191906000526020600020905b81548152906001019060200180831161063f57829003601f168201915b5050505060018301546002840154600390940154929390926001600160a01b0382169250600160a01b90910460ff169085565b600080600754610100900460ff1660038111156106ae576106ae610855565b036106b95750600190565b50600090565b6000602082840312156106d157600080fd5b5035919050565b6000602082840312156106ea57600080fd5b81356001600160a01b038116811461070157600080fd5b9392505050565b634e487b7160e01b600052604160045260246000fd5b60006020828403121561073057600080fd5b813567ffffffffffffffff8082111561074857600080fd5b818401915084601f83011261075c57600080fd5b81358181111561076e5761076e610708565b604051601f8201601f19908116603f0116810190838211818310171561079657610796610708565b816040528281528760208487010111156107af57600080fd5b826020860160208301376000928101602001929092525095945050505050565b6000815180845260005b818110156107f5576020818501810151868301820152016107d9565b506000602082860101526020601f19601f83011685010191505092915050565b60a08152600061082860a08301886107cf565b6020830196909652506001600160a01b039390931660408401529015156060830152608090910152919050565b634e487b7160e01b600052602160045260246000fd5b602081016004831061088d57634e487b7160e01b600052602160045260246000fd5b91905290565b634e487b7160e01b600052603260045260246000fd5b634e487b7160e01b600052601160045260246000fd5b6000600182016108d1576108d16108a9565b5060010190565b808201808211156108eb576108eb6108a9565b92915050565b82815260406020820152600061090a60408301846107cf565b949350505050565b600181811c9082168061092657607f821691505b60208210810361094657634e487b7160e01b600052602260045260246000fd5b5091905056fea2646970667358221220e8d84e3903341d26ffb0331d1c4662234993d59952a48ba7750015574accda9d64736f6c63430008130033608060405234801561001057600080fd5b50604051610aae380380610aae83398101604081905261002f9161008c565b600080546001600160a01b0319166001600160a01b03861617905560018390558383838361006082620151806100ed565b61006a904261010a565b6006556007805461ff0019166102001790556002555061011d95505050505050565b600080600080608085870312156100a257600080fd5b84516001600160a01b03811681146100b957600080fd5b60208601516040870151606090970151919890975090945092505050565b634e487b7160e01b600052601160045260246000fd5b8082028115828204841417610104576101046100d7565b92915050565b80820180821115610104576101046100d7565b6109828061012c6000396000f3fe6080604052600436106100c25760003560e01c80635c43217b1161007f578063a8622ffe11610059578063a8622ffe146101f1578063b4a99a4e14610207578063f387bcac14610227578063f3a4721a1461024c57600080fd5b80635c43217b1461019857806371aac7f9146101ab57806381d12c58146101c057600080fd5b80630b9f2c4a146100c757806312498a70146101045780631f6d49421461012857806337c0892314610155578063401938831461016b57806356c7f46114610181575b600080fd5b3480156100d357600080fd5b506100e76100e23660046106bf565b610278565b6040516001600160a01b0390911681526020015b60405180910390f35b34801561011057600080fd5b5061011a60065481565b6040519081526020016100fb565b34801561013457600080fd5b5061011a6101433660046106d8565b60036020526000908152604090205481565b34801561016157600080fd5b5061011a60055481565b34801561017757600080fd5b5061011a60025481565b34801561018d57600080fd5b506101966102a2565b005b6101966101a636600461071e565b610359565b3480156101b757600080fd5b506101966104b5565b3480156101cc57600080fd5b506101e06101db3660046106bf565b6105b0565b6040516100fb959493929190610815565b3480156101fd57600080fd5b5061011a60015481565b34801561021357600080fd5b506000546100e7906001600160a01b031681565b34801561023357600080fd5b5061023c61068f565b60405190151581526020016100fb565b34801561025857600080fd5b5060075461026b90610100900460ff1681565b6040516100fb919061086b565b6004818154811061028857600080fd5b6000918252602090912001546001600160a01b0316905081565b60005b60045481101561035657600481815481106102c2576102c2610893565b6000918252602082200154600480546001600160a01b03909216926108fc9260039290869081106102f5576102f5610893565b60009182526020808320909101546001600160a01b03168352820192909252604090810182205490518115909302929091818181858888f19350505050158015610343573d6000803e3d6000fd5b508061034e816108bf565b9150506102a5565b50565b60065442106103a45760405162461bcd60e51b815260206004820152601260248201527110d85b5c185a59db881a185cc8195b99195960721b60448201526064015b60405180910390fd5b6001543410156103f65760405162461bcd60e51b815260206004820152601b60248201527f436f6e747269627574696f6e20616d6f756e7420746f6f206c6f770000000000604482015260640161039b565b33600090815260036020526040812080543492906104159084906108d8565b92505081905550346005600082825461042e91906108d8565b9091555050600480546001810182556000919091527f8a35acfbc15ff81a39ae7d344fd709f28e8600b4aa8c65c6b64bfe7fe36bd19b0180546001600160a01b031916339081179091556040517f6c6bd9cc7b2797e318cc44b0a8ff8f992f1d76f11fb194e95e65272c593d3135906104aa90349085906108f1565b60405180910390a250565b6000546001600160a01b0316331461051d5760405162461bcd60e51b815260206004820152602560248201527f4f6e6c7920746865204f776e65722063616e2063616c6c20746869732066756e60448201526431ba34b7b760d91b606482015260840161039b565b60065442101561056f5760405162461bcd60e51b815260206004820152601a60248201527f43616d706169676e20686173206e6f7420656e64656420796574000000000000604482015260640161039b565b6002546005541015610594576007805461ff0019166103001790556105926102a2565b565b60025460055410610592576007805461ff001916610100179055565b600881815481106105c057600080fd5b90600052602060002090600402016000915090508060000180546105e390610912565b80601f016020809104026020016040519081016040528092919081815260200182805461060f90610912565b801561065c5780601f106106315761010080835404028352916020019161065c565b820191906000526020600020905b81548152906001019060200180831161063f57829003601f168201915b5050505060018301546002840154600390940154929390926001600160a01b0382169250600160a01b90910460ff169085565b600080600754610100900460ff1660038111156106ae576106ae610855565b036106b95750600190565b50600090565b6000602082840312156106d157600080fd5b5035919050565b6000602082840312156106ea57600080fd5b81356001600160a01b038116811461070157600080fd5b9392505050565b634e487b7160e01b600052604160045260246000fd5b60006020828403121561073057600080fd5b813567ffffffffffffffff8082111561074857600080fd5b818401915084601f83011261075c57600080fd5b81358181111561076e5761076e610708565b604051601f8201601f19908116603f0116810190838211818310171561079657610796610708565b816040528281528760208487010111156107af57600080fd5b826020860160208301376000928101602001929092525095945050505050565b6000815180845260005b818110156107f5576020818501810151868301820152016107d9565b506000602082860101526020601f19601f83011685010191505092915050565b60a08152600061082860a08301886107cf565b6020830196909652506001600160a01b039390931660408401529015156060830152608090910152919050565b634e487b7160e01b600052602160045260246000fd5b602081016004831061088d57634e487b7160e01b600052602160045260246000fd5b91905290565b634e487b7160e01b600052603260045260246000fd5b634e487b7160e01b600052601160045260246000fd5b6000600182016108d1576108d16108a9565b5060010190565b808201808211156108eb576108eb6108a9565b92915050565b82815260406020820152600061090a60408301846107cf565b949350505050565b600181811c9082168061092657607f821691505b60208210810361094657634e487b7160e01b600052602260045260246000fd5b5091905056fea2646970667358221220cc58001df017ae9638909780ef1e1b358cb64d4b857ffbd8c45b11b1e90effb864736f6c63430008130033608060405234801561001057600080fd5b50604051610aae380380610aae83398101604081905261002f9161008c565b600080546001600160a01b0319166001600160a01b03861617905560018390558383838361006082620151806100ed565b61006a904261010a565b6006556007805461ff0019166102001790556002555061011d95505050505050565b600080600080608085870312156100a257600080fd5b84516001600160a01b03811681146100b957600080fd5b60208601516040870151606090970151919890975090945092505050565b634e487b7160e01b600052601160045260246000fd5b8082028115828204841417610104576101046100d7565b92915050565b80820180821115610104576101046100d7565b6109828061012c6000396000f3fe6080604052600436106100c25760003560e01c80635c43217b1161007f578063a8622ffe11610059578063a8622ffe146101f1578063b4a99a4e14610207578063f387bcac14610227578063f3a4721a1461024c57600080fd5b80635c43217b1461019857806371aac7f9146101ab57806381d12c58146101c057600080fd5b80630b9f2c4a146100c757806312498a70146101045780631f6d49421461012857806337c0892314610155578063401938831461016b57806356c7f46114610181575b600080fd5b3480156100d357600080fd5b506100e76100e23660046106bf565b610278565b6040516001600160a01b0390911681526020015b60405180910390f35b34801561011057600080fd5b5061011a60065481565b6040519081526020016100fb565b34801561013457600080fd5b5061011a6101433660046106d8565b60036020526000908152604090205481565b34801561016157600080fd5b5061011a60055481565b34801561017757600080fd5b5061011a60025481565b34801561018d57600080fd5b506101966102a2565b005b6101966101a636600461071e565b610359565b3480156101b757600080fd5b506101966104b5565b3480156101cc57600080fd5b506101e06101db3660046106bf565b6105b0565b6040516100fb959493929190610815565b3480156101fd57600080fd5b5061011a60015481565b34801561021357600080fd5b506000546100e7906001600160a01b031681565b34801561023357600080fd5b5061023c61068f565b60405190151581526020016100fb565b34801561025857600080fd5b5060075461026b90610100900460ff1681565b6040516100fb919061086b565b6004818154811061028857600080fd5b6000918252602090912001546001600160a01b0316905081565b60005b60045481101561035657600481815481106102c2576102c2610893565b6000918252602082200154600480546001600160a01b03909216926108fc9260039290869081106102f5576102f5610893565b60009182526020808320909101546001600160a01b03168352820192909252604090810182205490518115909302929091818181858888f19350505050158015610343573d6000803e3d6000fd5b508061034e816108bf565b9150506102a5565b50565b60065442106103a45760405162461bcd60e51b815260206004820152601260248201527110d85b5c185a59db881a185cc8195b99195960721b60448201526064015b60405180910390fd5b6001543410156103f65760405162461bcd60e51b815260206004820152601b60248201527f436f6e747269627574696f6e20616d6f756e7420746f6f206c6f770000000000604482015260640161039b565b33600090815260036020526040812080543492906104159084906108d8565b92505081905550346005600082825461042e91906108d8565b9091555050600480546001810182556000919091527f8a35acfbc15ff81a39ae7d344fd709f28e8600b4aa8c65c6b64bfe7fe36bd19b0180546001600160a01b031916339081179091556040517f6c6bd9cc7b2797e318cc44b0a8ff8f992f1d76f11fb194e95e65272c593d3135906104aa90349085906108f1565b60405180910390a250565b6000546001600160a01b0316331461051d5760405162461bcd60e51b815260206004820152602560248201527f4f6e6c7920746865204f776e65722063616e2063616c6c20746869732066756e60448201526431ba34b7b760d91b606482015260840161039b565b60065442101561056f5760405162461bcd60e51b815260206004820152601a60248201527f43616d706169676e20686173206e6f7420656e64656420796574000000000000604482015260640161039b565b6002546005541015610594576007805461ff0019166103001790556105926102a2565b565b60025460055410610592576007805461ff001916610100179055565b600881815481106105c057600080fd5b90600052602060002090600402016000915090508060000180546105e390610912565b80601f016020809104026020016040519081016040528092919081815260200182805461060f90610912565b801561065c5780601f106106315761010080835404028352916020019161065c565b820191906000526020600020905b81548152906001019060200180831161063f57829003601f168201915b5050505060018301546002840154600390940154929390926001600160a01b0382169250600160a01b90910460ff169085565b600080600754610100900460ff1660038111156106ae576106ae610855565b036106b95750600190565b50600090565b6000602082840312156106d157600080fd5b5035919050565b6000602082840312156106ea57600080fd5b81356001600160a01b038116811461070157600080fd5b9392505050565b634e487b7160e01b600052604160045260246000fd5b60006020828403121561073057600080fd5b813567ffffffffffffffff8082111561074857600080fd5b818401915084601f83011261075c57600080fd5b81358181111561076e5761076e610708565b604051601f8201601f19908116603f0116810190838211818310171561079657610796610708565b816040528281528760208487010111156107af57600080fd5b826020860160208301376000928101602001929092525095945050505050565b6000815180845260005b818110156107f5576020818501810151868301820152016107d9565b506000602082860101526020601f19601f83011685010191505092915050565b60a08152600061082860a08301886107cf565b6020830196909652506001600160a01b039390931660408401529015156060830152608090910152919050565b634e487b7160e01b600052602160045260246000fd5b602081016004831061088d57634e487b7160e01b600052602160045260246000fd5b91905290565b634e487b7160e01b600052603260045260246000fd5b634e487b7160e01b600052601160045260246000fd5b6000600182016108d1576108d16108a9565b5060010190565b808201808211156108eb576108eb6108a9565b92915050565b82815260406020820152600061090a60408301846107cf565b949350505050565b600181811c9082168061092657607f821691505b60208210810361094657634e487b7160e01b600052602260045260246000fd5b5091905056fea26469706673582212209ae16a0b848d2726cd20935af13c764f3c569a1b79c5c02bf063b3f7c451cf9164736f6c63430008130033a264697066735822122022aedc7c4b02eb0d69666b65af61febe64380c7a4118f9d91549456ea603dbc164736f6c63430008130033",
    "sourcePath": "c:/Users/Bebo/CrowdFunding/BlockChainWithBackEnd/contracts/CampaginFactory.sol",
    "compiler": {
        "name": "solc",
        "version": "0.8.19+commit.7dd6d404"
    },
    "functionHashes": {
        "createProject(uint256,uint256,uint256,uint8)": "54613790",
        "deployedProjects(uint256)": "9ec6deaf",
        "getDeployedProjects()": "7ac3886e"
    },
    "gasEstimates": {
        "creation": {
            "codeDepositCost": "1843000",
            "executionCost": "1941",
            "totalCost": "1844941"
        },
        "external": {
            "createProject(uint256,uint256,uint256,uint8)": "infinite",
            "deployedProjects(uint256)": "4636",
            "getDeployedProjects()": "infinite"
        }
    }
}