{
    "contractName": "EquaityBasedCampaign",
    "abi": [
        {
            "inputs": [
                {
                    "internalType": "address payable",
                    "name": "owner",
                    "type": "address"
                },
                {
                    "internalType": "uint256",
                    "name": "minimumContribution",
                    "type": "uint256"
                },
                {
                    "internalType": "uint256",
                    "name": "durationInDays",
                    "type": "uint256"
                },
                {
                    "internalType": "uint256",
                    "name": "Goal",
                    "type": "uint256"
                }
            ],
            "stateMutability": "nonpayable",
            "type": "constructor"
        },
        {
            "anonymous": false,
            "inputs": [
                {
                    "indexed": true,
                    "internalType": "address",
                    "name": "contributor",
                    "type": "address"
                },
                {
                    "indexed": false,
                    "internalType": "uint256",
                    "name": "amount",
                    "type": "uint256"
                },
                {
                    "indexed": false,
                    "internalType": "string",
                    "name": "message",
                    "type": "string"
                }
            ],
            "name": "ContributionReceived",
            "type": "event"
        },
        {
            "inputs": [],
            "name": "Owner",
            "outputs": [
                {
                    "internalType": "address payable",
                    "name": "",
                    "type": "address"
                }
            ],
            "stateMutability": "view",
            "type": "function"
        },
        {
            "inputs": [],
            "name": "Type",
            "outputs": [
                {
                    "internalType": "uint256",
                    "name": "",
                    "type": "uint256"
                }
            ],
            "stateMutability": "view",
            "type": "function"
        },
        {
            "inputs": [],
            "name": "campaignEndTime",
            "outputs": [
                {
                    "internalType": "uint256",
                    "name": "",
                    "type": "uint256"
                }
            ],
            "stateMutability": "view",
            "type": "function"
        },
        {
            "inputs": [],
            "name": "campaignStatus",
            "outputs": [
                {
                    "internalType": "enum BaseCampaign.CampaignStatus",
                    "name": "",
                    "type": "uint8"
                }
            ],
            "stateMutability": "view",
            "type": "function"
        },
        {
            "inputs": [
                {
                    "internalType": "string",
                    "name": "message",
                    "type": "string"
                }
            ],
            "name": "contribute",
            "outputs": [],
            "stateMutability": "payable",
            "type": "function"
        },
        {
            "inputs": [
                {
                    "internalType": "address",
                    "name": "",
                    "type": "address"
                }
            ],
            "name": "contributors",
            "outputs": [
                {
                    "internalType": "uint256",
                    "name": "",
                    "type": "uint256"
                }
            ],
            "stateMutability": "view",
            "type": "function"
        },
        {
            "inputs": [
                {
                    "internalType": "uint256",
                    "name": "",
                    "type": "uint256"
                }
            ],
            "name": "contributorsList",
            "outputs": [
                {
                    "internalType": "address",
                    "name": "",
                    "type": "address"
                }
            ],
            "stateMutability": "view",
            "type": "function"
        },
        {
            "inputs": [],
            "name": "endCampaign",
            "outputs": [],
            "stateMutability": "nonpayable",
            "type": "function"
        },
        {
            "inputs": [],
            "name": "goal",
            "outputs": [
                {
                    "internalType": "uint256",
                    "name": "",
                    "type": "uint256"
                }
            ],
            "stateMutability": "view",
            "type": "function"
        },
        {
            "inputs": [],
            "name": "isCampaignActive",
            "outputs": [
                {
                    "internalType": "bool",
                    "name": "",
                    "type": "bool"
                }
            ],
            "stateMutability": "view",
            "type": "function"
        },
        {
            "inputs": [],
            "name": "minimumcontribution",
            "outputs": [
                {
                    "internalType": "uint256",
                    "name": "",
                    "type": "uint256"
                }
            ],
            "stateMutability": "view",
            "type": "function"
        },
        {
            "inputs": [],
            "name": "refundContributors",
            "outputs": [],
            "stateMutability": "nonpayable",
            "type": "function"
        },
        {
            "inputs": [],
            "name": "totalContributions",
            "outputs": [
                {
                    "internalType": "uint256",
                    "name": "",
                    "type": "uint256"
                }
            ],
            "stateMutability": "view",
            "type": "function"
        }
    ],
    "bytecode": "60c060405260006007553480156200001657600080fd5b5060405162000de038038062000de0833981016040819052620000399162000130565b600080546001600160a01b0319166001600160a01b0386161790556002839055838383836200006c826201518062000193565b620000789042620001b3565b60a0526006805461ff00191661020017905560808190526200009a30620000a8565b5050505050505050620001c9565b6040516001600160a01b0382166024820152620000f69060440160408051601f198184030181529190526020810180516001600160e01b0390811663161765e160e11b17909152620000f916565b50565b620000f6816200010f60201b6200092b1760201c565b60006a636f6e736f6c652e6c6f679050600080835160208501845afa505050565b600080600080608085870312156200014757600080fd5b84516001600160a01b03811681146200015f57600080fd5b60208601516040870151606090970151919890975090945092505050565b634e487b7160e01b600052601160045260246000fd5b8082028115828204841417620001ad57620001ad6200017d565b92915050565b80820180821115620001ad57620001ad6200017d565b60805160a051610bce62000212600039600081816101160152818161047d015261072f01526000818161019b01528181610597015281816107ef01526108320152610bce6000f3fe6080604052600436106100c25760003560e01c80635c43217b1161007f578063b4a99a4e11610059578063b4a99a4e14610212578063f387bcac14610232578063f3a4721a14610257578063ff7620441461028357600080fd5b80635c43217b146101d457806371aac7f9146101e7578063a8622ffe146101fc57600080fd5b80630b9f2c4a146100c757806312498a70146101045780631f6d49421461014657806337c0892314610173578063401938831461018957806356c7f461146101bd575b600080fd5b3480156100d357600080fd5b506100e76100e2366004610980565b610299565b6040516001600160a01b0390911681526020015b60405180910390f35b34801561011057600080fd5b506101387f000000000000000000000000000000000000000000000000000000000000000081565b6040519081526020016100fb565b34801561015257600080fd5b50610138610161366004610999565b60036020526000908152604090205481565b34801561017f57600080fd5b5061013860055481565b34801561019557600080fd5b506101387f000000000000000000000000000000000000000000000000000000000000000081565b3480156101c957600080fd5b506101d26102c3565b005b6101d26101e23660046109df565b61047b565b3480156101f357600080fd5b506101d26106c5565b34801561020857600080fd5b5061013860025481565b34801561021e57600080fd5b506000546100e7906001600160a01b031681565b34801561023e57600080fd5b506102476108fb565b60405190151581526020016100fb565b34801561026357600080fd5b5060065461027690610100900460ff1681565b6040516100fb9190610aa6565b34801561028f57600080fd5b5061013860015481565b600481815481106102a957600080fd5b6000918252602090912001546001600160a01b0316905081565b600560005b600454811015610477576000805b600483815481106102e9576102e9610ace565b6000918252602082200154600480546001600160a01b03909216926108fc92600392908890811061031c5761031c610ace565b60009182526020808320909101546001600160a01b03168352820192909252604090810182205490518115909302929091818181858888f193505050509050818061036690610afa565b9250508015801561037657508382105b6102d657806104245760405162461bcd60e51b815260206004820152606360248201527f4661696c656420746f2073656e642074686520636f6e747269627574696f6e2060448201527f746f2074686520636f6e7472696275746f72206166746572206d756c7469706c60648201527f6520617474656d7074732e20506c656173652074727920616761696e206c617460848201526232b91760e91b60a482015260c4015b60405180910390fd5b6000600360006004868154811061043d5761043d610ace565b60009182526020808320909101546001600160a01b031683528201929092526040019020555081905061046f81610afa565b9150506102c8565b5050565b7f000000000000000000000000000000000000000000000000000000000000000042106104df5760405162461bcd60e51b815260206004820152601260248201527110d85b5c185a59db881a185cc8195b99195960721b604482015260640161041b565b6000600654610100900460ff1660038111156104fd576104fd610a90565b146105435760405162461bcd60e51b815260206004820152601660248201527543616d706169676e206973204e6f742061637469766560501b604482015260640161041b565b6002543410156105955760405162461bcd60e51b815260206004820152601b60248201527f436f6e747269627574696f6e20616d6f756e7420746f6f206c6f770000000000604482015260640161041b565b7f0000000000000000000000000000000000000000000000000000000000000000600554106106065760405162461bcd60e51b815260206004820152601d60248201527f5468652063616d706169676e20726561636865732069747320676f616c000000604482015260640161041b565b3360009081526003602052604081208054349290610625908490610b13565b92505081905550346005600082825461063e9190610b13565b9091555050600480546001810182556000919091527f8a35acfbc15ff81a39ae7d344fd709f28e8600b4aa8c65c6b64bfe7fe36bd19b0180546001600160a01b031916339081179091556040517f6c6bd9cc7b2797e318cc44b0a8ff8f992f1d76f11fb194e95e65272c593d3135906106ba9034908590610b2c565b60405180910390a250565b6000546001600160a01b0316331461072d5760405162461bcd60e51b815260206004820152602560248201527f4f6e6c7920746865204f776e65722063616e2063616c6c20746869732066756e60448201526431ba34b7b760d91b606482015260840161041b565b7f000000000000000000000000000000000000000000000000000000000000000042101561079d5760405162461bcd60e51b815260206004820152601a60248201527f43616d706169676e20686173206e6f7420656e64656420796574000000000000604482015260640161041b565b600047116107ed5760405162461bcd60e51b815260206004820152601960248201527f436f6e74726163742062616c616e636520697320656d70747900000000000000604482015260640161041b565b7f00000000000000000000000000000000000000000000000000000000000000006005541015610830576006805461ff00191661030017905561082e6102c3565b565b7f00000000000000000000000000000000000000000000000000000000000000006005541061082e576006805461ff001916610100179055600061087261094c565b9050806108f85760405162461bcd60e51b815260206004820152604860248201527f4661696c656420746f2073656e64205468652063616d706169676e2062616c6160448201527f6e636520746f20746865204f776e65722c20706c65617365207472792061676160648201526734b7103630ba32b960c11b608482015260a40161041b565b50565b600080600654610100900460ff16600381111561091a5761091a610a90565b036109255750600190565b50600090565b60006a636f6e736f6c652e6c6f679050600080835160208501845afa505050565b600080546040516001600160a01b03909116904780156108fc029184818181858888f195945050505050565b61082e610b82565b60006020828403121561099257600080fd5b5035919050565b6000602082840312156109ab57600080fd5b81356001600160a01b03811681146109c257600080fd5b9392505050565b634e487b7160e01b600052604160045260246000fd5b6000602082840312156109f157600080fd5b813567ffffffffffffffff80821115610a0957600080fd5b818401915084601f830112610a1d57600080fd5b813581811115610a2f57610a2f6109c9565b604051601f8201601f19908116603f01168101908382118183101715610a5757610a576109c9565b81604052828152876020848701011115610a7057600080fd5b826020860160208301376000928101602001929092525095945050505050565b634e487b7160e01b600052602160045260246000fd5b6020810160048310610ac857634e487b7160e01b600052602160045260246000fd5b91905290565b634e487b7160e01b600052603260045260246000fd5b634e487b7160e01b600052601160045260246000fd5b600060018201610b0c57610b0c610ae4565b5060010190565b80820180821115610b2657610b26610ae4565b92915050565b82815260006020604081840152835180604085015260005b81811015610b6057858101830151858201606001528201610b44565b506000606082860101526060601f19601f830116850101925050509392505050565b634e487b7160e01b600052605160045260246000fdfea2646970667358221220dd930580f45dcd8f3bdfc0e6731038c7121c65c2ee4b03a4a274248bf306d3dd64736f6c63430008130033",
    "sourcePath": "c:/Users/Bebo/CrowdFunding/BlockChainWithBackEnd/contracts/EquaityBasedCampaign.sol",
    "compiler": {
        "name": "solc",
        "version": "0.8.19+commit.7dd6d404"
    },
    "functionHashes": {
        "Owner()": "b4a99a4e",
        "Type()": "ff762044",
        "campaignEndTime()": "12498a70",
        "campaignStatus()": "f3a4721a",
        "contribute(string)": "5c43217b",
        "contributors(address)": "1f6d4942",
        "contributorsList(uint256)": "0b9f2c4a",
        "endCampaign()": "71aac7f9",
        "goal()": "40193883",
        "isCampaignActive()": "f387bcac",
        "minimumcontribution()": "a8622ffe",
        "refundContributors()": "56c7f461",
        "totalContributions()": "37c08923"
    },
    "gasEstimates": {
        "creation": {
            "codeDepositCost": "604400",
            "executionCost": "infinite",
            "totalCost": "infinite"
        },
        "external": {
            "Owner()": "2348",
            "Type()": "2383",
            "campaignEndTime()": "infinite",
            "campaignStatus()": "2428",
            "contribute(string)": "infinite",
            "contributors(address)": "2529",
            "contributorsList(uint256)": "4604",
            "endCampaign()": "infinite",
            "goal()": "infinite",
            "isCampaignActive()": "2428",
            "minimumcontribution()": "2362",
            "refundContributors()": "infinite",
            "totalContributions()": "2362"
        }
    }
}