{
    "contractName": "UserManagement",
    "abi": [
        {
            "inputs": [],
            "stateMutability": "nonpayable",
            "type": "constructor"
        },
        {
            "anonymous": false,
            "inputs": [
                {
                    "indexed": true,
                    "internalType": "address",
                    "name": "userAddress",
                    "type": "address"
                }
            ],
            "name": "UserRegistered",
            "type": "event"
        },
        {
            "inputs": [],
            "name": "registerUser",
            "outputs": [],
            "stateMutability": "nonpayable",
            "type": "function"
        },
        {
            "inputs": [
                {
                    "internalType": "address",
                    "name": "",
                    "type": "address"
                }
            ],
            "name": "users",
            "outputs": [
                {
                    "internalType": "address",
                    "name": "ethAddress",
                    "type": "address"
                },
                {
                    "internalType": "bool",
                    "name": "registered",
                    "type": "bool"
                }
            ],
            "stateMutability": "view",
            "type": "function"
        }
    ],
    "bytecode": "608060405234801561001057600080fd5b50604080518082019091523380825260016020909201919091526000805460ff60a01b199092166001600160a81b031990921691909117600160a01b1790556101e48061005e6000396000f3fe608060405234801561001057600080fd5b50600436106100365760003560e01c80634d3820eb1461003b578063a87430ba14610045575b600080fd5b61004361009d565b005b61007a61005336600461017e565b6001602052600090815260409020546001600160a01b03811690600160a01b900460ff1682565b604080516001600160a01b03909316835290151560208301520160405180910390f35b33600090815260016020526040902054600160a01b900460ff16156101085760405162461bcd60e51b815260206004820152601760248201527f5573657220616c72656164792072656769737465726564000000000000000000604482015260640160405180910390fd5b60408051808201825233808252600160208084018281526000848152929091528482209351845491511515600160a01b026001600160a81b03199092166001600160a01b0391909116171790925591517f54db7a5cb4735e1aac1f53db512d3390390bb6637bd30ad4bf9fc98667d9b9b99190a2565b60006020828403121561019057600080fd5b81356001600160a01b03811681146101a757600080fd5b939250505056fea2646970667358221220bc6382d32eff79a31e92390f8e0bcebd496173ed61627ce4626ecef682a421d364736f6c63430008130033",
    "sourcePath": "c:/Users/Bebo/CrowdFunding/BlockChainWithBackEnd/contracts/UserManagement.sol",
    "compiler": {
        "name": "solc",
        "version": "0.8.19+commit.7dd6d404"
    },
    "functionHashes": {
        "registerUser()": "4d3820eb",
        "users(address)": "a87430ba"
    },
    "gasEstimates": {
        "creation": {
            "codeDepositCost": "96800",
            "executionCost": "24493",
            "totalCost": "121293"
        },
        "external": {
            "registerUser()": "27914",
            "users(address)": "2564"
        }
    }
}